:020000040800F2
:1000000000080020B90000082D0100082D0100089B
:100010002D0100082D0100082D0100082D01000808
:100020002D0100082D0100082D0100082D010008F8
:100030002D0100082D0100082D0100082D010008E8
:100040002D0100082D0100082D0100082D010008D8
:100050002D0100082D0100082D0100082D010008C8
:100060002D0100082D0100082D0100082D010008B8
:100070002D0100082D0100082D0100082D010008A8
:100080002D0100082D0100082D0100082D01000898
:100090002D0100082D0100082D0100082D01000888
:1000A0002D0100082D0100082D0100082D01000878
:1000B0002D0100082D01000880B584B000AF164B5B
:1000C000FB60164BBB60164A144BD31A7B6007E0EB
:1000D000BB685A1CBA60FA68511CF96012781A7031
:1000E0007B685A1E7A60002BF2D10E4BBB600E4A21
:1000F0000C4BD31A7B6004E0BB685A1CBA60002228
:100100001A707B685A1E7A60002BF5D100F0A0F8B7
:10011000C046BD4604B080BD90020008000000202B
:1001200000000020000000200000002080B500AF8B
:10013000FEE7C04680B582B000AF7860C0467B68FD
:100140005A1E7A60002BFAD1C046BD4602B080BD6F
:1001500080B500AF1A4B1A4A12681A490A401A6051
:10016000174B174A126801210A431A60C046144B04
:100170001B6804221340FAD0134B134A1268134928
:100180000A401A60104B104A1268C42109040A433D
:100190001A600B4B0A4A1268802149040A431A600C
:1001A000C046074B1A6880239B041340F9D0064BC6
:1001B000054A126803210A431A60C046BD4680BD45
:1001C00000100240FFFFFFFE0C100240FFFF47FF40
:1001D00080B500AF0D4B0D4A12680D490A401A60F8
:1001E0000A4B0A4A126801210A431A60C046074BAB
:1001F0001B6804221340FAD0064B064A12680121FC
:100200000A431A60C046BD4680BDC0460010024089
:10021000FFFFFFFE0C10024080B500AF0A4B0A4AF8
:10022000126802210A431A60084B084A12684021EA
:100230000A431A60054B054A126880218A431A60F6
:10024000C046BD4680BDC0462C1002400004005090
:1002500080B500AFFFF7BCFFFFF7DEFF0A4B0A4A8D
:10026000126808210A431A60084B1800FFF762FF62
:10027000054B054A126808218A431A60034B18008F
:10028000FFF758FFEAE7C04614040050400D030092
:0400000508000000EF
:00000001FF
